:1000000000000320D1010000B918000071180000A1
:1000100071180000711800007118000071180000BC
:10002000711800007118000071180000B918000064
:10003000B918000071180000E1200000E52100005F
:10004000B9180000B9180000B9180000B91800006C
:10005000B9180000B9180000B9180000B91800005C
:10006000B9180000B9180000B9180000B91800004C
:10007000B9180000B9180000B9180000B91800003C
:10008000B9180000B9180000B9180000B91800002C
:10009000B9180000B9180000B9180000B91800001C
:1000A000B9180000B9180000B9180000B91800000C
:1000B000B9180000B9180000B9180000591900005B
:1000C000B9180000851A0000B9180000B11B000023
:1000D000B9180000A91C0000B9180000B9180000E8
:1000E000B9180000B9180000B9180000B9180000CC
:1000F000B9180000B9180000B9180000B9180000BC
:10010000B9180000B9180000B9180000B9180000AB
:10011000B91800007D0C0000B9180000B9180000E3
:10012000B9180000B9180000B9180000B91800008B
:10013000B9180000B9180000B9180000B91800007B
:10014000B9180000B9180000A11D0000B91800007E
:10015000B9180000B9180000B9180000B91800005B
:10016000B9180000B9180000B9180000B91800004B
:10017000B9180000B9180000B9180000B91800003B
:10018000B9180000B9180000B9180000B91800002B
:10019000B9180000B9180000991E0000B918000035
:1001A000B9180000B9180000B9180000B91800000B
:1001B000B9180000B9180000B9180000B9180000FB
:1001C000B9180000B9180000B9180000B9180000EB
:1001D0005C4B4CF2205210B51A804DF628121A8052
:1001E00000BF00BF01F06CFB574B4FF030621A604C
:1001F000564A9A60564ADA60564B4FF470021A60BB
:10020000554B564A1A60564A136813F4807304D14A
:1002100054490B604FF4A8531360534B1A781107DD
:1002200003D51A7842F008021A70504B5049AA229E
:100230001A70504A504B8B4204D252F8040F43F8C4
:10024000040BF8E74D4B4E4900228B4202D243F893
:10025000042BFAE74B494C4A002352F8230041F89B
:1002600023000133742BF8D1484B494A802103F80D
:10027000011B9342FBD1474B424A1A60464B8A22EC
:100280001A70A3F5805324225A70A0221A709A790A
:100290009207FCD59A79D406FCD4404A937903F0AE
:1002A0000C03082BFAD13E4B60221A7002331A78E5
:1002B000802AFCD1394B01221A715D225A719A7938
:1002C0009006FCD59979354A4906FBD5354B364918
:1002D00019600021596020231370937903F00C03F7
:1002E0000C2BFAD1314B324A1A60324B324A1A6027
:1002F00000225A60072243F8042C304AC3F80C2D20
:1003000062B600F06BFB174B1B68DA0705D52C486B
:1003100000F000FB2B4B2C4A1A602C4B1B785B0621
:1003200009D5284C284B22689A4204D1244800F071
:10033000F1FA0023236002F051FD01F0C7FA01F049
:100340002DFAFEE70E20054030800440823F040075
:100350000100002B88ED00E0002008E0030000858C
:1003600010D0034014D0034002D0074000E0074003
:100370004C0CFF1FD82F00003007FF1F4C0CFF1F35
:10038000A010FF1F0002FF1F0000000000E400E0BB
:1003900064E400E008ED00E0005006400040064044
:1003A00001E007404480044000000602048004404D
:1003B000C010070014E000E01FBF02000000202072
:1003C00037BC885A1CE00340A5C3945A00F007408C
:1003D000FFFFFFFFFFFFFFFFFFFFFFFFFFFFFFFF2D
:1003E000FFFFFFFFFFFFFFFFFFFFFFFFFFFFFFFF1D
:1003F000FFFFFFFFFFFFFFFFFFFFFFFFFFFFFFFF0D
:10040000FFFFFFFFFFFFFFFFFFFFFFFFDEF9FFFF23
:1004100010B5054C237833B9044B13B10448AFF33E
:1004200000800123237010BD4C0CFF1F0000000052
:10043000DC2F0000084B10B51BB108490848AFF38A
:1004400000800848036803B910BD074B002BFBD0A0
:10045000BDE81040184700BF00000000500CFF1F0F
:10046000DC2F00004C0CFF1F0000000008B50C2022
:1004700000F09EF94FF4FA60BDE8084000F05CBA65
:100480002DE9F041E0B0ADF104055FFA80F82C46AB
:100490005FAF47F230563346013BFDD1404600F096
:1004A000BBF944F8040FA742F5D11FAC2A464FF41C
:1004B0008053002052F8041F8842B8BF08468B4280
:1004C000A8BF0B469442F5D1194A9FED1A7AD2ED96
:1004D000006AC01A00EBD07003EB600255F8043FCD
:1004E0009B1A07EE903AF8EEE77AAC4267EEA67AEE
:1004F000A7EEA77AF2D1DFED107A67EE277A17EE32
:10050000900A02F041F941EC100B01F0A7FE002225
:1005100051EC100B094B02F08BF90022084B02F052
:1005200087F902F035FC80B260B0BDE8F08100BF11
:100530007007FF1F000000000000003D00003E406B
:100540000000594070B5DB208AB00F4C00F0F4F980
:100550000DF1050504F1400654F8040FFFF790FF74
:10056000B4424FEA202305F8013C05F8020BF3D111
:10057000FF23222101A88DF824308DF8253001F0C9
:1005800065F80AB070BD00BF2C07FF1F374A384915
:1005900013681B06FCD40B6813F08003F8D172B605
:1005A00034490A78002A5FD0334A3448F0B4344CD6
:1005B000176806682568D4680C303E441432006819
:1005C0001268304F35442C4420440244C2F34E029A
:1005D0002D4E2E482E4D2F4C42F400423A60376883
:1005E00006682D682C4A24680C303E440068126866
:1005F0002A4F35442C4420440244C2F34E02284E74
:100600002848294D294C42F400423A603768066870
:100610002D68274A24680C303E4400681268254F34
:1006200035442C4420440244C2F34E02224E234857
:10063000234D244C42F400423A60376806682D6826
:10064000214A24680C303E440068126835442C442A
:1006500020440244C2F34E021C4842F400420260AD
:100660000B7062B6F0BC704762B6704724B00340AE
:1006700024B00B40690CFF1F38B003403CB003406E
:1006800040B003402CB0034058B003405CB003407E
:1006900060B0034064B003406CB0034030B003402E
:1006A00038B00B403CB00B4040B00B4044B00B4066
:1006B0004CB00B402CB00B4058B00B405CB00B4022
:1006C00060B00B4064B00B406CB00B4030B00B40DE
:1006D00030B42948294A2A4B2A4D6024E12104706C
:1006E00011701B78284C082B30D00A2B274828493A
:1006F00037D00C2B0CBF35225D2212232A602360D9
:1007000002600B60234B24491B78244ABBB10123B0
:100710000B601360224B23491B78234A012B26D9F7
:10072000042B0FD9082B1ED9102B94BF86238723A7
:100730000B6013601D4B01221A7030BC70470B60B8
:100740001360E7E784230B601360F3E700F58E2066
:100750000F490830212213232A60236002600B60B6
:10076000D0E73922F7E785230B601360E2E78023A7
:100770000B601360DEE700BF004007400140074008
:100780007407FF1F08B003400CB0034008B00B40D3
:100790000CB00B406C0CFF1F20B0034020B00B408E
:1007A0007507FF1F24B0034024B00B40690CFF1FE6
:1007B0000C2830B417D91023984228BF18461C467D
:1007C000104A114D1178181A8C42287018D00F4910
:1007D00013700B7823B10E490E4A00230B6013608F
:1007E00030BCFFF775BF0A2802D90C231C46E7E787
:1007F000082802D90A231C46E2E708231C46DFE743
:1008000030BC70477407FF1F680CFF1F690CFF1F87
:1008100024B0034024B00B4047282FD8334B2DE998
:10082000F0411E5CFF2E2BD0314B1B78002B2AD1C0
:1008300032062CD472B62F4D2F4C2F460123266042
:100840002B7062B672B623681B060CD43B781BB9BA
:10085000F4E72B78002BF1D062B600F0A7FF72B658
:1008600023681806F5D5254B1B6800222A7062B64E
:10087000234A107843FA00F0BDE8F0810020704769
:100880000020BDE8F081FFF781FE3206D2D572B6B6
:100890001C4DDFF87C801C4C06F04007FFB206F0D0
:1008A0003F06D8F80030DFB123F01003C8F800305D
:1008B00001232660134A2B7062B672B623681906AC
:1008C0000CD413781BB9ECE72B78002BE9D062B677
:1008D00000F06CFF72B623681B06F5D50B4BC3E71F
:1008E00043F01003C8F80030E2E700BF182F000003
:1008F000690CFF1F6B0CFF1F00B0034010B00340DA
:10090000680CFF1F6A0CFF1F00B00B4010B00B40BB
:100910000CB00B4030B4054B054D064C00221021A5
:100920001A602A602060196030BC704714D0034000
:1009300004D0034000D003402DE9F843054672B6C9
:10094000224F234B234A1B683C68126862B652014F
:1009500002D5322B88BF0134B5B3C3F52F3303F270
:100960001F331D4EDFF86890DFF868809B084FF456
:100970007A72A6FB031302FB04F404EB930472B631
:10098000D9F800103A68D8F800E062B6C1F52F3304
:1009900003F21F339B08A6FB03031EF0806FC4EB1A
:1009A00093034FF47A7002D0322988BF013200FBE2
:1009B0000233B3F57A7F04D3013D05D004F57A7490
:1009C000DDE700F0F3FEDAE7BDE8F883700CFF1F07
:1009D00018E000E004ED00E0176CC116F8B54E4BCE
:1009E0004E48DFF85CC14E4C4E49DFF858E14E4EA0
:1009F0004E4D4F4F4FF000621A604FF080521A6018
:100A00004FF000521A604FF080421A604FF00042DF
:100A10001A600022026028234EF6FF70CCF8000016
:100A2000CEF8003023600EF5012E0B6033602B6092
:100A300006F500263B6005F50025A36207F50027B3
:100A40008B6204F5012401F5012106F6E87605F62E
:100A5000E87507F57F6710310EF1100E2034336012
:100A60002B60CEF800303B600B602360314CBB61E3
:100A70008B6109212160A7F5002704F58054203FF0
:100A800008343A602060BB60E36047F8041C04F55A
:100A9000FD2407F5FE27043704F2FC742260386059
:100AA000A360FB6044F8041C083404F6FC74C7F827
:100AB000FC2F2060A4F5E124A4F2DC7433602B60E9
:100AC000C7F8F81F21681C4841F4007121600168D3
:100AD0001A4C0EF57F4E0EF1E80E07F5883706F535
:100AE000803605F5803541F000710160CEF80020B8
:100AF00047F6FF710822396033602B602260FFF7F0
:100B0000E7FD3220FFF718FF00F0E4FC4FF4AF7070
:100B1000BDE8F840FFF710BF04E100E004800340A7
:100B2000148003401C800340248003402C80034039
:100B300034800340008003400480044000900C4057
:100B4000088003400C800340013803280BD872B69C
:100B5000074B53F8203043B100205B680130002B75
:100B6000FBD162B67047002070471846F9E700BF16
:100B7000200DFF1FF0B472B61A491B4E012311F865
:100B8000014B194F9A00240742F0010505D556F88C
:100B9000324064B156F83520BAB10133052BEED19D
:100BA00062B6124B00221A70F0BC00F01BBD0F4C55
:100BB0000F4D217847F8325007EB431308304A1E97
:100BC0005860227062B6F0BC70470849094B0A7839
:100BD00047F8353007EBC5030830013A58600A7012
:100BE00062B6F0E7602F00000000FF1F490DFF1FF5
:100BF00088004000C8004000431E032B1DD81B4A3C
:100C0000400140F0100030B4104472B6184CE25C61
:100C1000032A1BD8DFE802F00212151703220D8801
:100C2000E25410F0080F14BFC823882343EA054399
:100C300008310360416062B630BC70470830022260
:100C4000EDE70522EBE708300422E8E7094A52F80D
:100C5000230038B1084A52F82300416042F82310BB
:100C600062B6E9E742F82310034AF7E70000FF1FE6
:100C7000580DFF1F200DFF1F300DFF1F2DE9F04FF6
:100C8000DFF804A3DFF804B387B044E0A94F4FEACC
:100C9000930807EBC809013ED9F8042003F00803C4
:100CA000F6B2A2F1080003F0FF04002B40F0FE8032
:100CB00057F838301B0C99B222F8081C002B00F0B2
:100CC000EC809D4B22F8064C42F8044C53F8262049
:100CD000002A00F02B82994D55F826305860984C28
:100CE00045F8260034F81630194424F8161000F0A0
:100CF00059FC002800F01382924A934B19F0080F18
:100D000000F1080018BF1346C9F8040047F838304E
:100D100008238AF800309AF80040E4B260071AD538
:100D20008A4B1B78A3B18A490A7802F0FF0322B1EB
:100D3000013BDBB20B7003B900BE86490A7802F0B2
:100D4000FF032AB1013BDBB20B70002B00F0BD8129
:100D500004238AF8003004F0080303F0FF02002B9C
:100D600000F0C8809BF80030DBB21E098ED19C08D1
:100D7000704F57F8342007EBC401C2F38302013AE5
:100D800049680C2A00F28580DFE802F079798383D4
:100D90008383838342838383070008686E4B6F4D90
:100DA0000193684B4A686E4E47F8343081B240F286
:100DB0008164694B6A60286000220120A1421A60A8
:100DC0003A61BA61307000F2E380B1F5D06F80F023
:100DD0002782B1F5817F00F0E08100F2C381802994
:100DE00000F03682822940F0DE81A9885D4B01F057
:100DF0007F01042900F2D8815B4C89000B442270EA
:100E000062701A78930740F122832070022023E257
:100E1000514B01931A683AB3544B514E54491888B8
:100E200034780D784028864645F0020828BF4FF0F8
:100E3000400E002C84F001043470CEEB00000CBF97
:100E40008824C82407EBC80680B285F0010544EA6F
:100E50000E447260188047F8384072440D700028C4
:100E600000F0B780019B1A603C4B1A88B2F5A06F66
:100E70000FD100219A7859703E4B1A7009E0374A19
:100E8000108842F22102904200F0A8802D4A47F8D3
:100E90003420394A012313703AE72A4A2A4B19F0C1
:100EA000080F18BF134647F8383031E700F09AFBB7
:100EB000324A334952F82630002B00F03B81586803
:100EC0008C5D42F8260003F10802C9F80420032CC7
:100ED00005D8DFE804F02C02292602228A551A8858
:100EE00019F0080F0CBF8823C82343EA024347F8D0
:100EF00038300DE7E00700F1EB80210600F1288192
:100F0000A20706D51F4A204913780220DBB21370CE
:100F10000870E30602D51C4B10221A7007B0BDE81A
:100F2000F08F04228A55DAE705228A55D7E7032293
:100F30008A55D4E70000FF1FCC0CFF1F780CFF1F61
:100F40008C10FF1FC800400088004000540DFF1F98
:100F5000DD0CFF1F5C0DFF1F740CFF1F400DFF1FFA
:100F6000DC0CFF1FC02007404C0DFF1F880CFF1F2B
:100F7000480DFF1F9820074094200740200DFF1FB9
:100F8000580DFF1F88200740802007409020074011
:100F900042F22104A14200F0948043D8B1F5086FD9
:100FA00000F0A881B1F5106F40F0FD80B84AB94C4F
:100FB000A978117004F1800503E00834AC4200F018
:100FC0009E81236A1906F8D5606A083800F00AFB8A
:100FD000F3E7BEF1400F18BF002243E7AE4ACD1D34
:100FE00011F8013B02F8013FA942F9D1AB4A12685E
:100FF000862A00F01181AA49AA4E0A78307882F038
:101000000105002842F002020D700CBF8821C821A2
:1010100047F8321007EBC20280F001000021307067
:10102000516033E742F22124A14240F0FE81DFF813
:10103000BCC29D4B9D49AC78DCF800501D608146D8
:101040000C700020029080468446044694490D7836
:1010500045F0020E07EBCE03B9F1000F5C600CBF48
:101060008824C82444EA080385F0010447F83E3088
:1010700032700C70DFF81CE28A4BDFF82482002803
:1010800040F09880BCF1400F1BD144F0020407EB04
:10109000C403029FDFF8FCE15F60002A40F09F80FC
:1010A000020442F0880207444EF8342086F800908B
:1010B0000D703B46402804D100207D4A01991080E4
:1010C0000B607C4A01231370E3E600F043FB3FE62C
:1010D000704B784872491A614FF0020E80F800E0B8
:1010E000754F0A70754919609960754E754D764C4B
:1010F0009A610D213970FF213170DFF8F4E1297018
:101100002270724D724A8EF800109F27012406F853
:10111000047C5D600470DA6007B0BDE8F08F6D4A52
:1011200047F83800137801331370F1E543F82600CF
:10113000694DD4E58B5D032B67D801A252F823F0EB
:10114000110D0000110D0000951100008F1100001D
:1011500059495C4B80220D2008701A70A2077FF558
:10116000D8AECFE640F20232914240F05681A988D3
:1011700001F07F01042916D86A88A2B94E4C890073
:101180000C448146217841F00201217059E7012386
:101190008B55BDE500238B55BAE5A98801F07F0189
:1011A000042940F24781444B0F221A70414A01231F
:1011B00013706EE640287FF668AF44F002040EEB31
:1011C000C401029E4E60AAB1444A83F8009033469F
:1011D000403888F8005040334EF834206DE7020460
:1011E000029B86F8009042F0C8020D7003444EF84E
:1011F00034205FE783F80090029B304A88F8005063
:10120000403840334EF8342057E719F0080F0CBF30
:10121000022303238B557BE5314A0F211170EAE647
:10122000304A5468002CBED06888B5F804E003E06A
:101230000C325468002CB6D013888342F8D15388FE
:101240007345F5D1000A03280CBF2078108903E00C
:10125000254C022022706270EA88824280F00C8164
:101260000F490D78402A45F0020E944607EBCE0058
:1012700028BF4FF0400C04EB0C0344600293CCEB0E
:1012800002004FEA0C484FF001090022C824E9E6A9
:10129000540DFF1F0000FF1F9310FF1F9410FF1F2E
:1012A000480DFF1FDC0CFF1F9C10FF1F6C0DFF1F64
:1012B000880CFF1F94200740C02007408800400092
:1012C0008820074080200740982007408C0CFF1F93
:1012D000E00CFF1F490DFF1F780CFF1FC8004000E6
:1012E000DD0CFF1F642F00004C0DFF1F700CFF1F53
:1012F0008C200740684A694C12782270ACE7684934
:10130000684B694A02916949694C6A4D0394059694
:101310004FF0000988461C4616460495206828B1FF
:10132000456800F05FF92846002DF9D100232360BD
:10133000049B30681A46002342F8293028B14568DA
:1013400000F050F92846002DF9D100223260029AAF
:1013500098F800301146002241F8042B039A0291BC
:10136000023B4FF0000122F81910032B07D8DFE8E9
:1013700003F0340234024FF0010388F8003009F121
:101380000109B9F1040F04F1040406F1040608F19F
:101390000108C3D1484B059EDFF83091DFF830815A
:1013A00000211970012518F8013B09F8043B1A07C0
:1013B00018D4AC0044F0020244F00304002347F8C0
:1013C000323047F834303D4B994505F10105EAD1FB
:1013D00096F8009089F0010233E64FF0000388F898
:1013E0000030CCE700F0DEF8AC0007EB451300F16D
:1013F0000802002837D05A60314B47F8343000F0EB
:10140000D1F844F0010307EBC30200F1080100B377
:1014100051602C4A47F83320CCE7B1F5A06F7FF438
:10142000C2AE00224FF001090BE642F22132914296
:10143000F7D0B8E66A88002A7FF4B5AE224C89005E
:101440000C448146217821F002012170F9E5022047
:1014500002E7194B44F001021B7847F83200164AA4
:1014600001331370A6E7144B134A1B78AC00013309
:1014700047F834001370C2E74028844628BF4FF075
:10148000400C04EB0C03CCEB00004FEA0C48029339
:1014900000224FF00109D9E5540DFF1F4C0DFF1F2D
:1014A000300DFF1FCC0CFF1F200DFF1F580DFF1F1D
:1014B0008C10FF1F780CFF1F490DFF1FD420074021
:1014C00088004000C8004000C0200740C4200740FA
:1014D000602F00002DE9F041274C00F04FFD002265
:1014E00004F1880023461A605A60083383424FF0A3
:1014F0000001F8D12148224A0368DFF89CE0214E20
:10150000214D224FDFF894C0DFF8948043F480230C
:101510000360136843F04073136003238EF80030B8
:10152000A023337002F5C922C4F3072300F5283045
:101530002B708030C4F3074310323B70240EFF231E
:101540000470134D8CF80030124888F80030137086
:10155000012306F8AC3C4FF400140EF8441C70262E
:10156000102107F82C3C2E70046082F8F810AEF1C0
:10157000440EBDE8F08100BF0000FF1F348004402E
:1015800000D80040402107409C200740B020074081
:1015900035E400E004E100E04421074080200740FA
:1015A0008820074072B60D480268B2FA82F30B2B0E
:1015B00010DC4FF00041D94022EA0102026062B61D
:1015C000074803EBC303DB00C2180021C1501046DB
:1015D0005160704762B60020704700BF7807FF1F58
:1015E000D003FF1F0D4B0E4AC31AA2FB03231B0996
:1015F0000B2B0CD80B4A127852B972B60A484FF02E
:101600000041026821FA03F31A43026062B6704790
:10161000064A1278002AF0D0FFF7ACBAD003FF1FB9
:10162000398EE338490DFF1F7807FF1F540DFF1F48
:10163000044B054A1B6890881BB11A885B88D31A33
:1016400018447047680DFF1F8C10FF1F2DE9F04FE5
:10165000DFF8F89083B0012289F80020019169B386
:10166000DFF8EC80354F019E8346D8F80000B0B318
:10167000334D4488C4F14001B14228BF314604EBE8
:10168000010E00221FFA8EFE2A70761AA0F802E0E0
:1016900000F1080251B1013C224459441BF8014BAE
:1016A00002F8014F8B45F9D1B0F802E0BEF13F0FCF
:1016B0000BD8244A05211170002ED6D101980023A1
:1016C00089F8003003B0BDE8F08F40220280014667
:1016D0000420FFF791FA0022C8F80020E9E73A78E1
:1016E00022B3194C164D4FF0010A07E0013C16D009
:1016F0002A78A2B900F05AF83A78BAB10420FFF774
:1017000023FA0728F2D889F800A0FFF74BFFC8F8A2
:1017100000000028ADD10D4B013C1870E8D1012329
:101720004FF0FF302B7003B0BDE8F08F00234FF077
:10173000FF3089F8003003B0BDE8F08F540DFF1F73
:10174000640DFF1F5C0DFF1F214801005D0DFF1F91
:10175000600DFF1F38B50E4B1B7873B90D4C216817
:1017600061B103F0FF054B880B800420FFF744FABA
:10177000256038BD084B01221A7038BDFFF712FFF3
:101780000028F7D00146BDE838400420FFF734BAFE
:101790005D0DFF1F600DFF1F5C0DFF1F08B5FEF7FD
:1017A00065FEFEF7CFFE00F001F8FAE738B52C4CE5
:1017B000237803B138BD01232370FFF739FF0028D8
:1017C00042D100F0B9F800283BD100F04BF90028D5
:1017D00034D100F0DDF970BB00F056FA40BB00F0E8
:1017E000CFFA10BB00F048FBE0B900232370EFF301
:1017F0000583002BDED1EFF3108172B6194B186808
:1018000028B3194C227812BB45691D60012323704F
:101810000DB3AA6101B962B6002545778368984780
:101820002570C7E700F0F0FCDFE700F0EBFCD9E73C
:1018300000F0E6FCD3E700F0E1FCCDE700F0DCFCD3
:10184000C7E700F0D7FCC0E700F0E0FCB9E70029EB
:10185000B0D162B638BD054B1D600029DCD1DAE796
:101860006D0DFF1F8010FF1F8410FF1F7C10FF1FD6
:1018700008B5104C08E0236859050DD423681A05F3
:101880000FD42368DB0411D423685803F3D5FFF782
:10189000F5F923685905F1D500F05EF823681A05BB
:1018A000EFD500F0EFF82368DB04EDD500F080F908
:1018B000EAE700BF3480044008B5FFF7D9FF00BF56
:1018C000014B10221A80704700200540704700BF6E
:1018D000084A1378802B01D0002070470649074B37
:1018E00007480860002119701378802BFCD0012074
:1018F000704700BF03E007404480044001E0074018
:1019000000002822094A1378012B01D000207047DB
:1019100003F1804303F5FC23602119701378802BB9
:10192000FCD1034B034A1A600120704703E00740D3
:101930004480044000000602054A064B10781B78DC
:10194000C0B2DBB2984238BF4030C01A704700BF07
:10195000740DFF1F750DFF1FF0B4384B1A7912F08C
:10196000300F2CD072B6997D01F0FF0200293DD0D6
:1019700062B6334F334938780D78334E1C46C0B2C7
:10198000EDB2431C402BE17928BF0023AB4202F1AA
:10199000FF32C9B21CBFF154184612F0FF02F0D159
:1019A0002A4B1B68C2B23A704BB1A84236BFC5F190
:1019B0004005401B40192728C4BF01221A701F4947
:1019C000CA78D2B2150616D452060DD51B4B1B7918
:1019D0005B0609D51E4B1F491B6800220A7003B124
:1019E0001A70164B3C22DA70F0BC70474022D9794D
:1019F0005A7462B6E3E70B791C06E5D5164B174E11
:101A00001C783378E4B2DBB29C420ED0144D01E076
:101A1000A3420AD00133402B28BF00230879E85C99
:101A2000C0B2C871087D0728F2D9DBB20349337010
:101A30000B79180644BF7C23CB70C5E700A0064095
:101A4000740DFF1F750DFF1FB80DFF1F700DFF1FD9
:101A5000FC0DFF1FF80DFF1F000EFF1FF90DFF1FEC
:101A6000780DFF1F054A064B10781B78C0B2DBB219
:101A7000984238BF4030C01A704700BF740EFF1F35
:101A8000090EFF1FF0B4384B1A7912F0300F2CD02A
:101A900072B6997D01F0FF0200293DD062B6334F46
:101AA000334938780D78334E1C46C0B2EDB2431C32
:101AB000402BE17928BF0023AB4202F1FF32C9B2CB
:101AC0001CBFF154184612F0FF02F0D12A4B1B68DC
:101AD000C2B23A704BB1A84236BFC5F14005401BB7
:101AE00040192728C4BF01221A701F49CA78D2B2F0
:101AF000150616D452060DD51B4B1B795B0609D56E
:101B00001E4B1F491B6800220A7003B11A70164B46
:101B10003C22DA70F0BC70474022D9795A7462B620
:101B2000E3E70B791C06E5D5164B174E1C78337886
:101B3000E4B2DBB29C420ED0144D01E0A3420AD0C5
:101B40000133282B28BF00230879E85CC0B2C87194
:101B5000087D0728F2D9DBB2034933700B791806E8
:101B600044BF7C23CB70C5E700B00640740EFF1F56
:101B7000090EFF1F340EFF1F040EFF1F780EFF1FFC
:101B8000080EFF1F7C0EFF1F750EFF1F0C0EFF1FA0
:101B9000054A064B10781B78C0B2DBB2984238BFBA
:101BA0004030C01A704700BF840EFF1F850EFF1F14
:101BB00030B42B4B1A7994061FD52A48DA7903786A
:101BC000294901333F2B0978C8BF00238B42D2B289
:101BD00003D0264CD9B2E2540170254A116861B194
:101BE000244A1278D2B2934236BFC2F140029B1A05
:101BF0009B18272BC4BF01230B70194AD378DBB283
:101C0000180611D45A060DD5154B1B795B0609D55C
:101C1000194B1A491B6800220A7003B11A70104B45
:101C20002C22DA7030BC704711790906EAD51449C4
:101C300010480C780178C9B28C420DD04A1C272A72
:101C400084BF00210A460F4D054C98BFD1B2AA5C53
:101C5000D2B2E2710170D5E76C21D170D2E700BF3A
:101C600000C00640840EFF1F850EFF1FB00EFF1F31
:101C7000800EFF1FF10EFF1FF40EFF1FF00EFF1F5F
:101C8000F80EFF1F880EFF1F054A064B10781B78C1
:101C9000C0B2DBB2984238BF4030C01A704700BFB4
:101CA000000FFF1F010FFF1F30B42B4B1A79940652
:101CB0001FD52A48DA790378294901333F2B09785F
:101CC000C8BF00238B42D2B203D0264CD9B2E25413
:101CD0000170254A116861B1244A1278D2B2934248
:101CE00036BFC2F140029B1A9B18272BC4BF0123A9
:101CF0000B70194AD378DBB2180611D45A060DD5E9
:101D0000154B1B795B0609D5194B1A491B68002234
:101D10000A7003B11A70104B2C22DA7030BC704775
:101D200011790906EAD5144910480C780178C9B22E
:101D30008C420DD04A1C272A84BF00210A460F4D31
:101D4000054C98BFD1B2AA5CD2B2E2710170D5E75E
:101D50006C21D170D2E700BF00D00640000FFF1FFA
:101D6000010FFF1F2C0FFF1FFC0EFF1F6D0FFF1F2A
:101D7000700FFF1F6C0FFF1F740FFF1F040FFF1F5B
:101D8000054A064B10781B78C0B2DBB2984238BFC8
:101D90004030C01A704700BF7C0FFF1F7D0FFF1F30
:101DA00030B42B4B1A7994061FD52A48DA79037878
:101DB000294901333F2B0978C8BF00238B42D2B297
:101DC00003D0264CD9B2E2540170254A116861B1A2
:101DD000244A1278D2B2934236BFC2F140029B1A13
:101DE0009B18272BC4BF01230B70194AD378DBB291
:101DF000180611D45A060DD5154B1B795B0609D56B
:101E0000194B1A491B6800220A7003B11A70104B53
:101E10002C22DA7030BC704711790906EAD51449D2
:101E200010480C780178C9B28C420DD04A1C272A80
:101E300084BF00210A460F4D054C98BFD1B2AA5C61
:101E4000D2B2E2710170D5E76C21D170D2E700BF48
:101E500000A00E407C0FFF1F7D0FFF1FA80FFF1F6C
:101E6000780FFF1FE90FFF1FEC0FFF1FE80FFF1F89
:101E7000F00FFF1F800FFF1F054A064B10781B78DD
:101E8000C0B2DBB2984238BF4030C01A704700BFC2
:101E9000F80FFF1FF90FFF1F30B42C4B5A68940244
:101EA0001FD52B48DA6803782A4901333F2B09787C
:101EB000C8BF00238B4204D0274CD2B2D9B2E2541F
:101EC0000170264A116861B1254A1278D2B2934254
:101ED00036BFC2F140029B1A9B18272BC4BF0123B7
:101EE0000B701A4A9368180202D55268110211D475
:101EF0005A020DD5154B5B685B0209D5194B1A497F
:101F00001B6800220A7003B11A70184B00221A6075
:101F100030BC7047164A124910780A78D2B2904203
:101F20000DD00132272A84BF00200246114D074CF4
:101F300098BFD0B2AA5CD2B2E2600870D8E70E486F
:101F40000A4A0024012104601160D1E700400C40DE
:101F5000F80FFF1FF90FFF1F2410FF1FF40FFF1FC3
:101F60006510FF1F6810FF1F6410FF1F5801884392
:101F70006C10FF1FFC0FFF1F5C01884310B584B07D
:101F800072B6FFF7A5FC184A184B19491160702268
:101F900080211A701A46197013781B06FCD5154B50
:101FA0001C68FFF7AFFC62B6134B9C429CBF04EB6E
:101FB000840464002046114C01A90A2200F028F98B
:101FC00001A92046002311F8012B01333AB10A2B55
:101FD00020F8022FF7D11623237004B010BD5B0048
:101FE000DBB2237004B010BD0400024000000240C8
:101FF000000007410C0002407F9698000808FF1F70
:1020000010B4EFF3108272B6437F33B9017F012918
:1020100008D0032910D00123437702B962B65DF8D6
:10202000044B7047114C2168A1B1114943610B6801
:10203000836108605861EEE70E4C216881B10E495A
:1020400043610B688361086058610C4B4FF080510D
:102050001960E0E7064B4161816120601860DAE7B2
:10206000054B4161816120601860EEE78010FF1F21
:102070007C10FF1F7010FF1F7410FF1F04ED00E0A5
:1020800010B4047F4160022CC26003D05DF8044BA1
:10209000FFF7B6BF83685DF8044B184770B5EFF3E0
:1020A000108272B60C4C206880B10C4E002543693A
:1020B000236073B19D6102B962B645778368984722
:1020C000EFF3108272B620680028F0D102B962B630
:1020D00070BD3360EFE700BF7010FF1F7410FF1F6B
:1020E000FFF7DCBF184A30B41468002C27D003680F
:1020F00021688B420ED2CB1A00218460C16023601C
:10210000E06010600223037530BC704711688B4299
:10211000144608D3A2685B1A0360002AF6D18260D5
:10212000C460A060EEE7D268C2608460E060C56809
:10213000CB1A0222A8602360027530BC704784600D
:10214000C4601060DEE700BF7810FF1FF8B5224EB4
:1021500034682CB32368002B3AD1204F1D4604E08D
:102160003468ECB12368002B32D1A36803B1DD6081
:1021700020693360036825751B68BB4221D1037F4A
:102180004560022BC46020D0FFF73AFF6368002B44
:10219000E6D023602046FFF7A5FF3468002CE1D18C
:1021A000EFF3108372B60E4A00211068116003B974
:1021B00062B628B18468FFF795FF20460028F9D160
:1021C000F8BD224600219847E0E783689847DDE79D
:1021D000013B2360E4E700BF7810FF1F812000006F
:1021E0008810FF1F024A136801331360FFF7AEBF68
:1021F000700CFF1F704700BF704700BF704700BFE3
:10220000704700BF704700BF704700BF704700BFF6
:10221000F0B44D1E2E46002400E00134B0FBF2F372
:1022200002FB1300092800F130078ABF3730F8B2EB
:10223000C0B206F8010F1846002BEED10A195370F0
:102240004CB1107815F8016F28700133E01A834201
:1022500002F80169F5DB0846F0BC70472DE9F04350
:102260002DED028B8BB055EC104B00F057F8294B3D
:10227000B0EE408AF0EE608A93F90060731C12D0D1
:1022800022462B462046294600F06CFD074650B9F1
:102290004FF000084FF000092046294642464B46C1
:1022A00000F038FD40B9B0EE480AF0EE680A0BB015
:1022B000BDEC028BBDE8F083174B08970122CDE9F6
:1022C0000445CDE902458DE80C00B6B142464B46C7
:1022D0004046494600F0D6FB022ECDE906010ED15C
:1022E00000F076FD21230360089B73B99DED060B7A
:1022F0000BB0BDEC028BBDE8F083CDE906896846E2
:1023000000F0DCF80028EFD1EAE700F061FD089B5F
:102310000360EBE71E08FF1FB82F00002DE9F04116
:10232000654955EC104B0E462940B14200F09780AC
:10233000002D2B4610EE102A74DD2F157FD0A7F24A
:10234000FF37C3F31303F90743F4801365D403EB9A
:10235000D27100260B447F105200B64616204FF46F
:1023600000110EEB01049C424FEAD2754FEA420283
:1023700003DC1B1B04EB010E0E44013805EB430389
:102380004FEA5101EDD1844620244FF0004109E08D
:1023900020D003EBD275013C4FEA51012B444FEAA8
:1023A000420220D09E4501EB0C05F1DA002D05EB31
:1023B000010C09DBF0469542CEEB030300D9013B4B
:1023C000521B0844C646E4E7BCF1000FF2DB0EF1F5
:1023D0000108F0E795421ED8002D05EB010C50DBFB
:1023E00098460023ECE7134304D0421C4DD000F084
:1023F0000103184440087110F30701F17F5101F502
:10240000001148BF40F0004001EB0753024643EC87
:10241000102BBDE8F0817346BBE75B0003EBD27382
:10242000520094E725F00041214328D0ADBB2F4650
:10243000D30A153F5205002BFAD0DD0228D4002123
:1024400000E001465B00DC0201F10100F9D5C0F1BA
:10245000200422FA04F423437F1A82406FE710EE2F
:10246000102A2B4610EE100A294600F0E1F9224608
:102470002B4600F02BF841EC100BBDE8F081BDE8D5
:10248000F081BCF1000FA2DAAAE701362046B2E7DC
:1024900020244FF0FF310020DBE710EE102A2B46FE
:1024A0002046294600F010F802460B4600F0EAFAF2
:1024B00041EC100BBDE8F0810000F07F0020704778
:1024C00081F0004102E000BF83F0004330B54FEAE5
:1024D00041044FEA430594EA050F08BF90EA020F52
:1024E0001FBF54EA000C55EA020C7FEA645C7FEAE5
:1024F000655C00F0E2804FEA5454D4EB5555B8BF08
:102500006D420CDD2C4480EA020281EA030382EA78
:10251000000083EA010180EA020281EA0303362D0A
:1025200088BF30BD11F0004F4FEA01314FF4801CDD
:102530004CEA113102D0404261EB410113F0004FEF
:102540004FEA03334CEA133302D0524263EB4303A6
:1025500094EA050F00F0A780A4F10104D5F1200E44
:102560000DDB02FA0EFC22FA05F2801841F100019F
:1025700003FA0EF2801843FA05F359410EE0A5F173
:1025800020050EF1200E012A03FA0EFC28BF4CF0A4
:10259000020C43FA05F3C01851EBE37101F000455A
:1025A00007D54FF0000EDCF1000C7EEB00006EEB67
:1025B0000101B1F5801F1BD3B1F5001F0CD34908F1
:1025C0005FEA30004FEA3C0C04F101044FEA445248
:1025D00012F5800F80F09A80BCF1004F08BF5FEACF
:1025E000500C50F1000041EB045141EA050130BDAF
:1025F0005FEA4C0C404141EB010111F4801FA4F152
:102600000104E9D191F0000F04BF01460020B1FAA6
:1026100081F308BF2033A3F10B03B3F120020CDADE
:102620000C3208DD02F1140CC2F10C0201FA0CF0BC
:1026300021FA02F10CE002F11402D8BFC2F1200C21
:1026400001FA02F120FA0CFCDCBF41EA0C019040D7
:10265000E41AA2BF01EB0451294330BD6FEA040420
:102660001F3C1CDA0C340EDC04F11404C4F120020B
:1026700020FA04F001FA02F340EA030021FA04F31D
:1026800045EA030130BDC4F10C04C4F1200220FA74
:1026900002F001FA04F340EA0300294630BD21FAB2
:1026A00004F0294630BD94F0000F83F4801306BF78
:1026B00081F480110134013D4EE77FEA645C18BF6C
:1026C0007FEA655C29D094EA050F08BF90EA020F03
:1026D00005D054EA000C04BF1946104630BD91EAFB
:1026E000030F1EBF0021002030BD5FEA545C05D1FE
:1026F0004000494128BF41F0004130BD14F580043D
:102700003CBF01F5801130BD01F0004545F0FE41B0
:1027100041F470014FF0000030BD7FEA645C1ABFE5
:10272000194610467FEA655C1CBF0B46024650EA1C
:10273000013406BF52EA033591EA030F41F4002148
:1027400030BD00BF90F0000F04BF0021704730B5CE
:102750004FF4806404F132044FF000054FF00001A3
:1027600050E700BF90F0000F04BF0021704730B564
:102770004FF4806404F1320410F0004548BF404239
:102780004FF000013EE700BF42004FEAE2014FEA8E
:1027900031014FEA02701FBF12F07F4393F07F4F69
:1027A00081F06051704792F0000F14BF93F07F4F9B
:1027B000704730B54FF4607401F0004521F00041DE
:1027C00020E700BF50EA010208BF704730B54FF064
:1027D00000050AE050EA010208BF704730B511F069
:1027E000004502D5404261EB41014FF4806404F1A1
:1027F00032045FEA915C3FF4DCAE4FF003025FEA23
:10280000DC0C18BF03325FEADC0C18BF033202EBAA
:10281000DC02C2F1200300FA03FC20FA02F001FA04
:1028200003FE40EA0E0021FA02F11444C1E600BFA3
:1028300070B54FF0FF0C4CF4E06C1CEA11541DBF56
:102840001CEA135594EA0C0F95EA0C0F00F0DEF821
:102850002C4481EA030621EA4C5123EA4C5350EA06
:10286000013518BF52EA033541F4801143F4801357
:1028700038D0A0FB02CE4FF00005E1FB02E506F0E8
:102880000042E0FB03E54FF00006E1FB03569CF03D
:10289000000F18BF4EF0010EA4F1FF04B6F5007F43
:1028A00064F5407404D25FEA4E0E6D4146EB0606B5
:1028B00042EAC62141EA55514FEAC52040EA5E503E
:1028C0004FEACE2EB4F1FD0C88BFBCF5E06F1ED8E8
:1028D000BEF1004F08BF5FEA500E50F1000041EB1F
:1028E000045170BD06F0004646EA010140EA0200CC
:1028F00081EA0301B4EB5C04C2BFD4EB0C0541EAEE
:10290000045170BD41F480114FF0000E013C00F302
:10291000AB8014F1360FDEBF002001F0004170BD26
:10292000C4F10004203C35DA0C341BDC04F114043F
:10293000C4F1200500FA05F320FA04F001FA05F2CB
:1029400040EA020001F0004221F0004110EBD37098
:1029500021FA04F642EB06015EEA430E08BF20EAC4
:10296000D37070BDC4F10C04C4F1200500FA04F367
:1029700020FA05F001FA04F240EA020001F00041F9
:1029800010EBD37041F100015EEA430E08BF20EA6C
:10299000D37070BDC4F1200500FA05F24EEA020EB4
:1029A00020FA04F301FA05F243EA020321FA04F0E3
:1029B00001F0004121FA04F220EA020000EBD3709A
:1029C0005EEA430E08BF20EAD37070BD94F0000F9A
:1029D0000FD101F00046400041EB010111F4801FCE
:1029E00008BF013CF7D041EA060195F0000F18BF7F
:1029F000704703F00046520043EB030313F4801FBB
:102A000008BF013DF7D043EA0603704794EA0C0F74
:102A10000CEA135518BF95EA0C0F0CD050EA41068A
:102A200018BF52EA4306D1D181EA030101F0004107
:102A30004FF0000070BD50EA410606BF104619462F
:102A400052EA430619D094EA0C0F02D150EA01363B
:102A500013D195EA0C0F05D152EA03361CBF10467C
:102A600019460AD181EA030101F0004141F0FE411B
:102A700041F470014FF0000070BD41F0FE4141F49F
:102A8000780170BD70B54FF0FF0C4CF4E06C1CEA9F
:102A900011541DBF1CEA135594EA0C0F95EA0C0F54
:102AA00000F0A7F8A4EB050481EA030E52EA03350F
:102AB0004FEA013100F088804FEA03334FF0805530
:102AC00045EA131343EA12634FEA022245EA11155D
:102AD00045EA10654FEA00260EF000419D4208BF0E
:102AE000964244F1FD0404F5407402D25B084FEABB
:102AF0003202B61A65EB03055B084FEA32024FF467
:102B000080104FF4002CB6EB020E75EB030E22BFC3
:102B1000B61A754640EA0C005B084FEA3202B6EB83
:102B2000020E75EB030E22BFB61A754640EA5C0032
:102B30005B084FEA3202B6EB020E75EB030E22BFC2
:102B4000B61A754640EA9C005B084FEA3202B6EBC3
:102B5000020E75EB030E22BFB61A754640EADC0082
:102B600055EA060E18D04FEA051545EA16754FEAE4
:102B700006164FEAC30343EA52734FEAC2025FEA02
:102B80001C1CC0D111F4801F0BD141EA00014FF091
:102B900000004FF0004CB6E711F4801F04BF014362
:102BA0000020B4F1FD0C88BFBCF5E06F3FF6AFAE7E
:102BB000B5EB030C04BFB6EB020C5FEA500C50F10E
:102BC000000041EB045170BD0EF0004E4EEA113191
:102BD00014EB5C04C2BFD4EB0C0541EA045170BD98
:102BE00041F480114FF0000E013C90E645EA060EDC
:102BF0008DE60CEA135594EA0C0F08BF95EA0C0F0A
:102C00003FF43BAF94EA0C0F0AD150EA01347FF451
:102C100034AF95EA0C0F7FF425AF104619462CE728
:102C200095EA0C0F06D152EA03353FF4FDAE10468B
:102C3000194622E750EA410618BF52EA43067FF4DC
:102C4000C5AE50EA41047FF40DAF52EA43057FF46C
:102C5000EBAE12E74FF0FF3C06E000BF4FF0010C77
:102C600002E000BF4FF0010C4DF804CD4FEA410CDB
:102C70007FEA6C5C4FEA430C18BF7FEA6C5C1BD0A8
:102C800001B050EA410C0CBF52EA430C91EA030F29
:102C900002BF90EA020F0020704710F1000F91EA86
:102CA000030F58BF994208BF90422CBFD8176FEA54
:102CB000E37040F0010070474FEA410C7FEA6C5C22
:102CC00002D150EA013C07D14FEA430C7FEA6C5C29
:102CD000D6D152EA033CD3D05DF8040B704700BF55
:102CE0008446104662468C461946634600E000BFA3
:102CF00001B5FFF7B7FF002848BF10F1000F01BD75
:102D00004DF808EDFFF7F4FF0CBF012000205DF83F
:102D100008FB00BF4DF808EDFFF7EAFF34BF0120C4
:102D200000205DF808FB00BF4DF808EDFFF7E0FF5D
:102D300094BF012000205DF808FB00BF4DF808EDAE
:102D4000FFF7CEFF94BF012000205DF808FB00BF15
:102D50004DF808EDFFF7C4FF34BF012000205DF8F7
:102D600008FB00BF4FEA410C7FEA6C5C02D150EADD
:102D7000013C0AD14FEA430C7FEA6C5C02D152EA73
:102D8000033C02D14FF0000070474FF00100704744
:102D90004A0011D212F5001211D20DD56FF47873DA
:102DA000B3EB62520ED44FEAC12343F0004343EA2F
:102DB000505323FA02F070474FF00000704750EA7A
:102DC000013002D14FF0FF3070474FF000007047E4
:102DD000014B1868704700BF480CFF1F70B50F4EBD
:102DE0000F4D761BB61018BF002405D0013455F8DE
:102DF000043B9847A642F9D10A4E0B4D761B00F0D2
:102E0000E1F8B61018BF002406D0013455F8043B91
:102E10009847A642F9D170BD70BD00BFD02F000009
:102E2000D02F0000D82F0000D02F0000024B13B18C
:102E3000024800F005B87047000000004D2E000069
:102E4000002301461A46184600F014B838B5074D5D
:102E5000074C2C1BA41005D0013C55F8043D9847A5
:102E6000002CF9D1BDE8384000F0B6B800000000F1
:102E7000000000002DE9F047254C2568D5F84841B1
:102E80000646884692469946C4B360681F2817DCF8
:102E9000431C76B104EB80050122C5F888A0D4F864
:102EA000881182401143022EC4F88811C5F8089198
:102EB0001ED00230636044F820800020BDE8F08717
:102EC000144B03B34FF4C870AFF300800446D0B185
:102ED000D5F84831002780E88800C5F848413846D1
:102EE0000123C4F88871C4F88C71002EE1D0D1E7B9
:102EF000D4F88C110A43C4F88C21DAE705F5A674DE
:102F0000C5F84841C1E74FF0FF30BDE8F08700BF8A
:102F1000C02F000000000000050E08090D0C060778
:102F20000F0403938E8F050E08090D0C06070F047E
:102F3000FFFFFFFFFFFFFF8E8F11128485868791B1
:102F4000FFFFFFFFFFFFFFFFFF8A8BFFFFFFFFFF7A
:102F5000FFFFFFFFFFFFFFFF0393179701811A9207
:102F600000151915000100007C07FF1F120000006A
:102F700000020000A807FF1F43000000000300003C
:102F80000408FF1F00000000010309049007FF1F51
:102F90000000000002030904EC07FF1F000000000E
:102FA000030309040808FF1F0000000000000000E0
:102FB0000000000000000000737172740000000047
:102FC0002008FF1FF8B500BFF8BC08BC9E4670473C
:082FD0002D2E00003504000065
:042FD800F8B500BF89
:102FDC00210000002200000023000000240000005B
:102FEC002500000026000000270000004200000021
:102FFC00100000001100000012000000130000007F
:10300C00140000001500000016000000170000005E
:10301C003333533A0A040000FFFFFFFF1201010192
:10302C0002000040C01683040002010203010000EC
:10303C0018035400650065006E007300790064008D
:10304C00750069006E006F0009024300020100C0A8
:10305C0032090400000102020100052400100105E0
:10306C00240101010424020605240600010705823F
:10307C000310004009040100020A000000070503C8
:10308C0002400000070584024000000016035500B2
:10309C00530042002000530065007200690061007B
:1030AC006C000000040309040C0300000000000085
:1030BC000000000000000000000000000000010003
:1030CC00000000000C0BFF1F740BFF1FDC0BFF1F1D
:1030DC0000000000000000000000000000000000E4
:1030EC0000000000000000000000000000000000D4
:1030FC0000000000000000000000000000000000C4
:10310C0000000000000000000000000000000000B3
:10311C0000000000000000000000000000000000A3
:10312C000000000000000000000000000000000093
:10313C000000000000000000000000000000000083
:10314C000000000000000000000000000000000073
:10315C000000000000000000000000000000000063
:10316C000000000000000000010000000000000052
:10317C000E33CDAB34126DE6ECDE05000B00000017
:10318C000000000000000000000000000000000033
:10319C000000000000000000000000000000000023
:1031AC000000000000000000000000000000000013
:1031BC000000000000000000000000000000000003
:0C34EC0000000000000000002008FF1F8E
:00000001FF
